:1000000024C03CC03BC03AC039C038C037C036C03D
:1000100035C034C033C032C031C030C02FC02EC054
:100020002DC02CC02BC060C15BC156C147C13CC1B3
:1000300037C132C12BC126C171C16DC16CC171C143
:1000400065C16FC171C170C172C111241FBECFEDF6
:10005000CDBF10E0A0E6B0E0E8E0F4E002C005901B
:100060000D92A837B107D9F711E0A8E7B0E001C0B9
:100070001D92A530B107E1F78ED1C4C1C1CFBA9AA4
:1000800083E880BF82E083BF0895BC9A8FE19EE43D
:1000900095BD84BD8EE096E099BD88BD82EA8FBD96
:1000A0008AE18EBD88E99AE328EC30E0F9013197C6
:1000B000F1F70197D9F7089592B989B988E18AB91A
:1000C00086E083B908955D9BFECF8CB908955F9B50
:1000D000FECF8CB10895FC0104C05D9BFECF31962C
:1000E0008CB980818823C9F7089580E690E0F3DF1A
:1000F0008CED95E028EC30E0F9013197F1F70197AC
:10010000D9F789E690E0E7DF8CED95E028EC30E068
:10011000F9013197F1F70197D9F70895DC010D90B6
:100120000020E9F71197A81BB90B20E030E009C0C7
:10013000FC01E20FF31FE0815D9BFECFECB92F5F66
:100140003F4F2A173B07A4F30895DF93CF9300D0C6
:10015000CDB7DEB75F9BFECF8CB120917800309198
:100160007900F901EA57FF4F80832F5F3F4F3093AB
:100170007900209378002330310509F007C1809180
:100180008600883409F033C080918700893409F0F3
:1001900066C080918800813209F061C0D89A80EDF4
:1001A00097E028EC30E0F9013197F1F70197D9F7A2
:1001B000D89888E893E128EC30E0F9013197F1F71D
:1001C0000197D9F7D89A80ED97E028EC30E0F90153
:1001D0003197F1F70197D9F7D89888EB9BE028EC95
:1001E00030E0F9013197F1F70197D9F738C085333D
:1001F000B1F580917300853391F128EC40E757E128
:1002000026BFCA010197F1F721502A30C9F782E4CD
:10021000898383E58A8388E58B83849B07C0859BDC
:1002200005C083E08093770083E48B83849B07C0C1
:10023000859905C082E08093770082E48B8384995E
:1002400007C0859905C081E08093770081E48B83A6
:10025000CE01019663DF80E29EE40197F1F7809181
:100260008800813311F4D89A01C0D8984091860053
:10027000842F90E0FC01F197E930F105D8F5ED5EAF
:10028000FF4F0994C198C09A8FEF03C0C198C09ADC
:1002900082ED86BF92982DC0C198C09A83ECF9CFA9
:1002A000C198C09A8AEAF5CF16BEC198C098C69A7E
:1002B000929810927D0010927C001CC0C19AC09848
:1002C0008AEA86BF80918200909183000197909383
:1002D0008300809382000CC0C19AC09883EC07C051
:1002E000C19AC09887ED03C0C19AC0988FEF86BFAE
:1002F000929AC69830918700832F90E0FC01F19785
:10030000E930F105B8F4E45EFF4F09948AEA95E01C
:1003100099BD88BD11C08EE794E01AC08EEE92E0C0
:1003200017C08AEA95E014C08AE397E011C084E719
:1003300099E00EC0353371F420917200253320F41A
:1003400084EA96E099BD88BD263320F086E495E0E6
:1003500099BD88BD80917C0090917D00873091058A
:100360002CF4019690937D0080937C008091820014
:100370009091830090938500809384003093720065
:100380004093730010927900109278000F900F90B4
:10039000CF91DF910895109279001092780012B8F1
:1003A0008CE089B988E18AB986E083B988EE93E068
:1003B00028EC30E0F9013197F1F70197D9F7BA9AB3
:1003C00083E880BF82E083BF60DEB99AC19AB89AA1
:1003D000C09ABE9AC69A8A9A9298D09AD8988B9ABE
:1003E00093988C9894988D989598D89A80ED97E0EA
:1003F00028EC30E0F9013197F1F70197D9F7D89857
:08040000A4DEFECFF894FFCF4B
:1004080041542B52455345540041542B53544152A7
:0804180054003530313A0003B5
:00000001FF
